{
    "_format": "hh-sol-artifact-1",
    "contractName": "Healthcare",
    "sourceName": "contracts/Healthcare.sol",
    "abi": [
        {
            "inputs": [
                {
                    "internalType": "address",
                    "name": "_address",
                    "type": "address"
                }
            ],
            "name": "RevokePermission",
            "outputs": [
                {
                    "internalType": "bool",
                    "name": "success",
                    "type": "bool"
                }
            ],
            "stateMutability": "nonpayable",
            "type": "function"
        },
        {
            "inputs": [
                {
                    "internalType": "address",
                    "name": "_adminAdd",
                    "type": "address"
                }
            ],
            "name": "addAdmin",
            "outputs": [],
            "stateMutability": "nonpayable",
            "type": "function"
        },
        {
            "inputs": [
                {
                    "internalType": "address",
                    "name": "_patientAddress",
                    "type": "address"
                },
                {
                    "internalType": "string",
                    "name": "_diagnosis",
                    "type": "string"
                },
                {
                    "internalType": "string",
                    "name": "_treatment",
                    "type": "string"
                },
                {
                    "internalType": "string",
                    "name": "_docName",
                    "type": "string"
                },
                {
                    "internalType": "address",
                    "name": "_docAddress",
                    "type": "address"
                }
            ],
            "name": "addPatientData",
            "outputs": [],
            "stateMutability": "nonpayable",
            "type": "function"
        },
        {
            "inputs": [],
            "name": "approvePatientData",
            "outputs": [],
            "stateMutability": "nonpayable",
            "type": "function"
        },
        {
            "inputs": [],
            "name": "countPatient",
            "outputs": [
                {
                    "internalType": "uint256",
                    "name": "",
                    "type": "uint256"
                }
            ],
            "stateMutability": "view",
            "type": "function"
        },
        {
            "inputs": [],
            "name": "createAdmin",
            "outputs": [],
            "stateMutability": "nonpayable",
            "type": "function"
        },
        {
            "inputs": [],
            "name": "createDoctor",
            "outputs": [],
            "stateMutability": "nonpayable",
            "type": "function"
        },
        {
            "inputs": [
                {
                    "internalType": "address",
                    "name": "_add",
                    "type": "address"
                }
            ],
            "name": "getAllData",
            "outputs": [
                {
                    "components": [
                        {
                            "internalType": "string",
                            "name": "diagnosis",
                            "type": "string"
                        },
                        {
                            "internalType": "string",
                            "name": "treatment",
                            "type": "string"
                        },
                        {
                            "internalType": "string",
                            "name": "docName",
                            "type": "string"
                        },
                        {
                            "internalType": "address",
                            "name": "docAddress",
                            "type": "address"
                        },
                        {
                            "internalType": "uint256",
                            "name": "timestamp",
                            "type": "uint256"
                        },
                        {
                            "internalType": "bool",
                            "name": "approved",
                            "type": "bool"
                        },
                        {
                            "internalType": "bool",
                            "name": "isPatient",
                            "type": "bool"
                        }
                    ],
                    "internalType": "struct Healthcare.Patient[]",
                    "name": "",
                    "type": "tuple[]"
                }
            ],
            "stateMutability": "view",
            "type": "function"
        },
        {
            "inputs": [
                {
                    "internalType": "address",
                    "name": "_add",
                    "type": "address"
                }
            ],
            "name": "getAllDocs",
            "outputs": [
                {
                    "internalType": "address[]",
                    "name": "",
                    "type": "address[]"
                }
            ],
            "stateMutability": "view",
            "type": "function"
        },
        {
            "inputs": [
                {
                    "internalType": "address",
                    "name": "_address",
                    "type": "address"
                }
            ],
            "name": "getPatientData",
            "outputs": [
                {
                    "internalType": "string",
                    "name": "",
                    "type": "string"
                },
                {
                    "internalType": "string",
                    "name": "",
                    "type": "string"
                },
                {
                    "internalType": "string",
                    "name": "",
                    "type": "string"
                },
                {
                    "internalType": "address",
                    "name": "",
                    "type": "address"
                }
            ],
            "stateMutability": "view",
            "type": "function"
        },
        {
            "inputs": [
                {
                    "internalType": "address",
                    "name": "_address",
                    "type": "address"
                }
            ],
            "name": "givePermission",
            "outputs": [
                {
                    "internalType": "bool",
                    "name": "success",
                    "type": "bool"
                }
            ],
            "stateMutability": "nonpayable",
            "type": "function"
        }
    ],
    "bytecode": "0x608060405234801561001057600080fd5b506120a8806100206000396000f3fe608060405234801561001057600080fd5b50600436106100a95760003560e01c80634d5cf261116100715780634d5cf2611461018f57806352d703c914610199578063531d5980146101a357806367e737f7146101bf57806370480275146101ef578063e92980c51461020b576100a9565b806302516abd146100ae5780632c04ea4f146100de5780633d391f70146100fc57806348e818521461012c5780634a04a92a1461015f575b600080fd5b6100c860048036038101906100c39190611393565b610215565b6040516100d591906113db565b60405180910390f35b6100e6610346565b6040516100f3919061140f565b60405180910390f35b61011660048036038101906101119190611393565b61034c565b60405161012391906113db565b60405180910390f35b61014660048036038101906101419190611393565b61047d565b60405161015694939291906114c9565b60405180910390f35b61017960048036038101906101749190611393565b61085f565b60405161018691906115e1565b60405180910390f35b61019761092c565b005b6101a1610aaf565b005b6101bd60048036038101906101b89190611738565b610b32565b005b6101d960048036038101906101d49190611393565b610eb6565b6040516101e691906119db565b60405180910390f35b61020960048036038101906102049190611393565b6111a0565b005b610213611243565b005b600033600160008273ffffffffffffffffffffffffffffffffffffffff1673ffffffffffffffffffffffffffffffffffffffff16815260200190815260200160002060050160019054906101000a900460ff166102a7576040517f08c379a000000000000000000000000000000000000000000000000000000000815260040161029e90611a6f565b60405180910390fd5b6000600460003373ffffffffffffffffffffffffffffffffffffffff1673ffffffffffffffffffffffffffffffffffffffff16815260200190815260200160002060008573ffffffffffffffffffffffffffffffffffffffff1673ffffffffffffffffffffffffffffffffffffffff16815260200190815260200160002060006101000a81548160ff0219169083151502179055506001915050919050565b60005481565b600033600160008273ffffffffffffffffffffffffffffffffffffffff1673ffffffffffffffffffffffffffffffffffffffff16815260200190815260200160002060050160019054906101000a900460ff166103de576040517f08c379a00000000000000000000000000000000000000000000000000000000081526004016103d590611a6f565b60405180910390fd5b6001600460003373ffffffffffffffffffffffffffffffffffffffff1673ffffffffffffffffffffffffffffffffffffffff16815260200190815260200160002060008573ffffffffffffffffffffffffffffffffffffffff1673ffffffffffffffffffffffffffffffffffffffff16815260200190815260200160002060006101000a81548160ff0219169083151502179055506001915050919050565b606080606060003373ffffffffffffffffffffffffffffffffffffffff168573ffffffffffffffffffffffffffffffffffffffff1614806105445750600460008673ffffffffffffffffffffffffffffffffffffffff1673ffffffffffffffffffffffffffffffffffffffff16815260200190815260200160002060003373ffffffffffffffffffffffffffffffffffffffff1673ffffffffffffffffffffffffffffffffffffffff16815260200190815260200160002060009054906101000a900460ff165b610583576040517f08c379a000000000000000000000000000000000000000000000000000000000815260040161057a90611b01565b60405180910390fd5b600160008673ffffffffffffffffffffffffffffffffffffffff1673ffffffffffffffffffffffffffffffffffffffff168152602001908152602001600020600001600160008773ffffffffffffffffffffffffffffffffffffffff1673ffffffffffffffffffffffffffffffffffffffff168152602001908152602001600020600101600160008873ffffffffffffffffffffffffffffffffffffffff1673ffffffffffffffffffffffffffffffffffffffff168152602001908152602001600020600201600160008973ffffffffffffffffffffffffffffffffffffffff1673ffffffffffffffffffffffffffffffffffffffff16815260200190815260200160002060030160009054906101000a900473ffffffffffffffffffffffffffffffffffffffff168380546106b890611b50565b80601f01602080910402602001604051908101604052809291908181526020018280546106e490611b50565b80156107315780601f1061070657610100808354040283529160200191610731565b820191906000526020600020905b81548152906001019060200180831161071457829003601f168201915b5050505050935082805461074490611b50565b80601f016020809104026020016040519081016040528092919081815260200182805461077090611b50565b80156107bd5780601f10610792576101008083540402835291602001916107bd565b820191906000526020600020905b8154815290600101906020018083116107a057829003601f168201915b505050505092508180546107d090611b50565b80601f01602080910402602001604051908101604052809291908181526020018280546107fc90611b50565b80156108495780601f1061081e57610100808354040283529160200191610849565b820191906000526020600020905b81548152906001019060200180831161082c57829003601f168201915b5050505050915093509350935093509193509193565b6060600660008373ffffffffffffffffffffffffffffffffffffffff1673ffffffffffffffffffffffffffffffffffffffff16815260200190815260200160002080548060200260200160405190810160405280929190818152602001828054801561092057602002820191906000526020600020905b8160009054906101000a900473ffffffffffffffffffffffffffffffffffffffff1673ffffffffffffffffffffffffffffffffffffffff16815260200190600101908083116108d6575b50505050509050919050565b33600160008273ffffffffffffffffffffffffffffffffffffffff1673ffffffffffffffffffffffffffffffffffffffff16815260200190815260200160002060050160019054906101000a900460ff166109bc576040517f08c379a00000000000000000000000000000000000000000000000000000000081526004016109b390611a6f565b60405180910390fd5b60001515600160003373ffffffffffffffffffffffffffffffffffffffff1673ffffffffffffffffffffffffffffffffffffffff16815260200190815260200160002060050160009054906101000a900460ff16151514610a52576040517f08c379a0000000000000000000000000000000000000000000000000000000008152600401610a4990611bcd565b60405180910390fd5b60018060003373ffffffffffffffffffffffffffffffffffffffff1673ffffffffffffffffffffffffffffffffffffffff16815260200190815260200160002060050160006101000a81548160ff02191690831515021790555050565b33600260003373ffffffffffffffffffffffffffffffffffffffff1673ffffffffffffffffffffffffffffffffffffffff16815260200190815260200160002060000160006101000a81548173ffffffffffffffffffffffffffffffffffffffff021916908373ffffffffffffffffffffffffffffffffffffffff160217905550565b600360003373ffffffffffffffffffffffffffffffffffffffff1673ffffffffffffffffffffffffffffffffffffffff16815260200190815260200160002060000160149054906101000a900460ff16610bc1576040517f08c379a0000000000000000000000000000000000000000000000000000000008152600401610bb890611c5f565b60405180910390fd5b600560008673ffffffffffffffffffffffffffffffffffffffff1673ffffffffffffffffffffffffffffffffffffffff1681526020019081526020016000206040518060e001604052808681526020018581526020018481526020018373ffffffffffffffffffffffffffffffffffffffff16815260200142815260200160001515815260200160011515815250600160008873ffffffffffffffffffffffffffffffffffffffff1673ffffffffffffffffffffffffffffffffffffffff1681526020019081526020016000206000820151816000019081610ca39190611e2b565b506020820151816001019081610cb99190611e2b565b506040820151816002019081610ccf9190611e2b565b5060608201518160030160006101000a81548173ffffffffffffffffffffffffffffffffffffffff021916908373ffffffffffffffffffffffffffffffffffffffff1602179055506080820151816004015560a08201518160050160006101000a81548160ff02191690831515021790555060c08201518160050160016101000a81548160ff0219169083151502179055509050908060018154018082558091505060019003906000526020600020906006020160009091909190915060008201816000019081610da09190611f13565b5060018201816001019081610db59190611f13565b5060028201816002019081610dca9190611f13565b506003820160009054906101000a900473ffffffffffffffffffffffffffffffffffffffff168160030160006101000a81548173ffffffffffffffffffffffffffffffffffffffff021916908373ffffffffffffffffffffffffffffffffffffffff160217905550600482015481600401556005820160009054906101000a900460ff168160050160006101000a81548160ff0219169083151502179055506005820160019054906101000a900460ff168160050160016101000a81548160ff0219169083151502179055505050600080815480929190610eaa9061202a565b91905055505050505050565b6060600560008373ffffffffffffffffffffffffffffffffffffffff1673ffffffffffffffffffffffffffffffffffffffff168152602001908152602001600020805480602002602001604051908101604052809291908181526020016000905b8282101561119557838290600052602060002090600602016040518060e0016040529081600082018054610f4a90611b50565b80601f0160208091040260200160405190810160405280929190818152602001828054610f7690611b50565b8015610fc35780601f10610f9857610100808354040283529160200191610fc3565b820191906000526020600020905b815481529060010190602001808311610fa657829003601f168201915b50505050508152602001600182018054610fdc90611b50565b80601f016020809104026020016040519081016040528092919081815260200182805461100890611b50565b80156110555780601f1061102a57610100808354040283529160200191611055565b820191906000526020600020905b81548152906001019060200180831161103857829003601f168201915b5050505050815260200160028201805461106e90611b50565b80601f016020809104026020016040519081016040528092919081815260200182805461109a90611b50565b80156110e75780601f106110bc576101008083540402835291602001916110e7565b820191906000526020600020905b8154815290600101906020018083116110ca57829003601f168201915b505050505081526020016003820160009054906101000a900473ffffffffffffffffffffffffffffffffffffffff1673ffffffffffffffffffffffffffffffffffffffff1673ffffffffffffffffffffffffffffffffffffffff168152602001600482015481526020016005820160009054906101000a900460ff161515151581526020016005820160019054906101000a900460ff16151515158152505081526020019060010190610f17565b505050509050919050565b600660008273ffffffffffffffffffffffffffffffffffffffff1673ffffffffffffffffffffffffffffffffffffffff168152602001908152602001600020339080600181540180825580915050600190039060005260206000200160009091909190916101000a81548173ffffffffffffffffffffffffffffffffffffffff021916908373ffffffffffffffffffffffffffffffffffffffff16021790555050565b33600360003373ffffffffffffffffffffffffffffffffffffffff1673ffffffffffffffffffffffffffffffffffffffff16815260200190815260200160002060000160006101000a81548173ffffffffffffffffffffffffffffffffffffffff021916908373ffffffffffffffffffffffffffffffffffffffff1602179055506001600360003373ffffffffffffffffffffffffffffffffffffffff1673ffffffffffffffffffffffffffffffffffffffff16815260200190815260200160002060000160146101000a81548160ff021916908315150217905550565b6000604051905090565b600080fd5b600080fd5b600073ffffffffffffffffffffffffffffffffffffffff82169050919050565b600061136082611335565b9050919050565b61137081611355565b811461137b57600080fd5b50565b60008135905061138d81611367565b92915050565b6000602082840312156113a9576113a861132b565b5b60006113b78482850161137e565b91505092915050565b60008115159050919050565b6113d5816113c0565b82525050565b60006020820190506113f060008301846113cc565b92915050565b6000819050919050565b611409816113f6565b82525050565b60006020820190506114246000830184611400565b92915050565b600081519050919050565b600082825260208201905092915050565b60005b83811015611464578082015181840152602081019050611449565b60008484015250505050565b6000601f19601f8301169050919050565b600061148c8261142a565b6114968185611435565b93506114a6818560208601611446565b6114af81611470565b840191505092915050565b6114c381611355565b82525050565b600060808201905081810360008301526114e38187611481565b905081810360208301526114f78186611481565b9050818103604083015261150b8185611481565b905061151a60608301846114ba565b95945050505050565b600081519050919050565b600082825260208201905092915050565b6000819050602082019050919050565b61155881611355565b82525050565b600061156a838361154f565b60208301905092915050565b6000602082019050919050565b600061158e82611523565b611598818561152e565b93506115a38361153f565b8060005b838110156115d45781516115bb888261155e565b97506115c683611576565b9250506001810190506115a7565b5085935050505092915050565b600060208201905081810360008301526115fb8184611583565b905092915050565b600080fd5b600080fd5b7f4e487b7100000000000000000000000000000000000000000000000000000000600052604160045260246000fd5b61164582611470565b810181811067ffffffffffffffff821117156116645761166361160d565b5b80604052505050565b6000611677611321565b9050611683828261163c565b919050565b600067ffffffffffffffff8211156116a3576116a261160d565b5b6116ac82611470565b9050602081019050919050565b82818337600083830152505050565b60006116db6116d684611688565b61166d565b9050828152602081018484840111156116f7576116f6611608565b5b6117028482856116b9565b509392505050565b600082601f83011261171f5761171e611603565b5b813561172f8482602086016116c8565b91505092915050565b600080600080600060a086880312156117545761175361132b565b5b60006117628882890161137e565b955050602086013567ffffffffffffffff81111561178357611782611330565b5b61178f8882890161170a565b945050604086013567ffffffffffffffff8111156117b0576117af611330565b5b6117bc8882890161170a565b935050606086013567ffffffffffffffff8111156117dd576117dc611330565b5b6117e98882890161170a565b92505060806117fa8882890161137e565b9150509295509295909350565b600081519050919050565b600082825260208201905092915050565b6000819050602082019050919050565b600082825260208201905092915050565b600061184f8261142a565b6118598185611833565b9350611869818560208601611446565b61187281611470565b840191505092915050565b611886816113f6565b82525050565b611895816113c0565b82525050565b600060e08301600083015184820360008601526118b88282611844565b915050602083015184820360208601526118d28282611844565b915050604083015184820360408601526118ec8282611844565b9150506060830151611901606086018261154f565b506080830151611914608086018261187d565b5060a083015161192760a086018261188c565b5060c083015161193a60c086018261188c565b508091505092915050565b6000611951838361189b565b905092915050565b6000602082019050919050565b600061197182611807565b61197b8185611812565b93508360208202850161198d85611823565b8060005b858110156119c957848403895281516119aa8582611945565b94506119b583611959565b925060208a01995050600181019050611991565b50829750879550505050505092915050565b600060208201905081810360008301526119f58184611966565b905092915050565b7f4f6e6c792070617469656e742063616e2063616c6c20746869732066756e637460008201527f696f6e0000000000000000000000000000000000000000000000000000000000602082015250565b6000611a59602383611435565b9150611a64826119fd565b604082019050919050565b60006020820190508181036000830152611a8881611a4c565b9050919050565b7f4f6e6c792070617469656e74732063616e20616363657373206461746120756e60008201527f74696c20617574686f7269736564000000000000000000000000000000000000602082015250565b6000611aeb602e83611435565b9150611af682611a8f565b604082019050919050565b60006020820190508181036000830152611b1a81611ade565b9050919050565b7f4e487b7100000000000000000000000000000000000000000000000000000000600052602260045260246000fd5b60006002820490506001821680611b6857607f821691505b602082108103611b7b57611b7a611b21565b5b50919050565b7f50617469656e74206461746120616c726561647920617070726f766564000000600082015250565b6000611bb7601d83611435565b9150611bc282611b81565b602082019050919050565b60006020820190508181036000830152611be681611baa565b9050919050565b7f4f6e6c792061646d696e2063616e2063616c6c20746869732066756e6374696f60008201527f6e00000000000000000000000000000000000000000000000000000000000000602082015250565b6000611c49602183611435565b9150611c5482611bed565b604082019050919050565b60006020820190508181036000830152611c7881611c3c565b9050919050565b60008190508160005260206000209050919050565b60006020601f8301049050919050565b600082821b905092915050565b600060088302611ce17fffffffffffffffffffffffffffffffffffffffffffffffffffffffffffffffff82611ca4565b611ceb8683611ca4565b95508019841693508086168417925050509392505050565b6000819050919050565b6000611d28611d23611d1e846113f6565b611d03565b6113f6565b9050919050565b6000819050919050565b611d4283611d0d565b611d56611d4e82611d2f565b848454611cb1565b825550505050565b600090565b611d6b611d5e565b611d76818484611d39565b505050565b5b81811015611d9a57611d8f600082611d63565b600181019050611d7c565b5050565b601f821115611ddf57611db081611c7f565b611db984611c94565b81016020851015611dc8578190505b611ddc611dd485611c94565b830182611d7b565b50505b505050565b600082821c905092915050565b6000611e0260001984600802611de4565b1980831691505092915050565b6000611e1b8383611df1565b9150826002028217905092915050565b611e348261142a565b67ffffffffffffffff811115611e4d57611e4c61160d565b5b611e578254611b50565b611e62828285611d9e565b600060209050601f831160018114611e955760008415611e83578287015190505b611e8d8582611e0f565b865550611ef5565b601f198416611ea386611c7f565b60005b82811015611ecb57848901518255600182019150602085019450602081019050611ea6565b86831015611ee85784890151611ee4601f891682611df1565b8355505b6001600288020188555050505b505050505050565b600081549050611f0c81611b50565b9050919050565b818103611f21575050611ff9565b611f2a82611efd565b67ffffffffffffffff811115611f4357611f4261160d565b5b611f4d8254611b50565b611f58828285611d9e565b6000601f831160018114611f875760008415611f75578287015490505b611f7f8582611e0f565b865550611ff2565b601f198416611f9587611c7f565b9650611fa086611c7f565b60005b82811015611fc857848901548255600182019150600185019450602081019050611fa3565b86831015611fe55784890154611fe1601f891682611df1565b8355505b6001600288020188555050505b5050505050505b565b7f4e487b7100000000000000000000000000000000000000000000000000000000600052601160045260246000fd5b6000612035826113f6565b91507fffffffffffffffffffffffffffffffffffffffffffffffffffffffffffffffff820361206757612066611ffb565b5b60018201905091905056fea2646970667358221220ce4d74dd61ed77005b198ba4e982fcd26d267867650d7b48c957120b1f043ca164736f6c63430008120033",
    "linkReferences": {},
    "deployedLinkReferences": {}
}